{
    "contractName": "ReservationManager",
    "abi": [
        {
            "inputs": [],
            "stateMutability": "nonpayable",
            "type": "constructor"
        },
        {
            "inputs": [
                {
                    "internalType": "string",
                    "name": "name",
                    "type": "string"
                }
            ],
            "name": "createProvider",
            "outputs": [],
            "stateMutability": "nonpayable",
            "type": "function"
        },
        {
            "inputs": [
                {
                    "internalType": "uint16",
                    "name": "guestCount",
                    "type": "uint16"
                }
            ],
            "name": "createReservationUnit",
            "outputs": [],
            "stateMutability": "nonpayable",
            "type": "function"
        },
        {
            "inputs": [],
            "name": "getThePrice",
            "outputs": [
                {
                    "internalType": "int256",
                    "name": "",
                    "type": "int256"
                }
            ],
            "stateMutability": "view",
            "type": "function"
        },
        {
            "inputs": [
                {
                    "internalType": "uint256",
                    "name": "",
                    "type": "uint256"
                }
            ],
            "name": "ownerOfProvider",
            "outputs": [
                {
                    "internalType": "address",
                    "name": "",
                    "type": "address"
                }
            ],
            "stateMutability": "view",
            "type": "function"
        },
        {
            "inputs": [
                {
                    "internalType": "address",
                    "name": "",
                    "type": "address"
                }
            ],
            "name": "providerOfOwner",
            "outputs": [
                {
                    "internalType": "uint256",
                    "name": "id",
                    "type": "uint256"
                },
                {
                    "internalType": "string",
                    "name": "name",
                    "type": "string"
                },
                {
                    "internalType": "bool",
                    "name": "isCreated",
                    "type": "bool"
                }
            ],
            "stateMutability": "view",
            "type": "function"
        },
        {
            "inputs": [
                {
                    "internalType": "uint256",
                    "name": "",
                    "type": "uint256"
                }
            ],
            "name": "providers",
            "outputs": [
                {
                    "internalType": "uint256",
                    "name": "id",
                    "type": "uint256"
                },
                {
                    "internalType": "string",
                    "name": "name",
                    "type": "string"
                },
                {
                    "internalType": "bool",
                    "name": "isCreated",
                    "type": "bool"
                }
            ],
            "stateMutability": "view",
            "type": "function"
        },
        {
            "inputs": [
                {
                    "internalType": "uint256",
                    "name": "",
                    "type": "uint256"
                }
            ],
            "name": "reservationUnitCountOfProvider",
            "outputs": [
                {
                    "internalType": "uint256",
                    "name": "",
                    "type": "uint256"
                }
            ],
            "stateMutability": "view",
            "type": "function"
        },
        {
            "inputs": [
                {
                    "internalType": "uint256",
                    "name": "",
                    "type": "uint256"
                }
            ],
            "name": "reservationUnitOfProvider",
            "outputs": [
                {
                    "internalType": "uint16",
                    "name": "possibleGuestCount",
                    "type": "uint16"
                },
                {
                    "internalType": "bool",
                    "name": "isCreated",
                    "type": "bool"
                }
            ],
            "stateMutability": "view",
            "type": "function"
        },
        {
            "inputs": [
                {
                    "internalType": "uint256",
                    "name": "",
                    "type": "uint256"
                }
            ],
            "name": "reservationUnits",
            "outputs": [
                {
                    "internalType": "uint16",
                    "name": "possibleGuestCount",
                    "type": "uint16"
                },
                {
                    "internalType": "bool",
                    "name": "isCreated",
                    "type": "bool"
                }
            ],
            "stateMutability": "view",
            "type": "function"
        }
    ],
    "bytecode": "608060405234801561001057600080fd5b50600080546001600160a01b031916739326bfa02add2366b30bacb125260af64103133117905561090e806100466000396000f3fe608060405234801561001057600080fd5b50600436106100935760003560e01c806350f3fc811161006657806350f3fc81146101335780636c1a77271461015557806381afe75a146101835780638c3c9a5514610196578063bcb16efc1461019e57600080fd5b80630472e2e0146100985780630504283d146100ca5780631a5ac8db146100df57806341764614146100f2575b600080fd5b6100ab6100a6366004610775565b6101cd565b6040805161ffff90931683529015156020830152015b60405180910390f35b6100dd6100d8366004610753565b6101fc565b005b6100dd6100ed3660046106a9565b61032e565b61011b610100366004610775565b6003602052600090815260409020546001600160a01b031681565b6040516001600160a01b0390911681526020016100c1565b610146610141366004610775565b610444565b6040516100c1939291906107dc565b610175610163366004610775565b60066020526000908152604090205481565b6040519081526020016100c1565b61014661019136600461067b565b610505565b610175610527565b6100ab6101ac366004610775565b60056020526000908152604090205461ffff81169062010000900460ff1682565b600281815481106101dd57600080fd5b60009182526020909120015461ffff8116915062010000900460ff1682565b3360009081526004602052604090206002015460ff1661021b57600080fd5b6040805180820190915261ffff8083168252600160208301818152600280548084018255600082815295517f405787fa12a823e0f2b7631cc41b3ba8828b3321ca811111fa75cd3aa3bb5ace909101805493511515620100000262ffffff199094169190951617919091179092559054610295919061083f565b9050600281815481106102b857634e487b7160e01b600052603260045260246000fd5b600091825260208083203384526004825260408085208054865260058452818620929094018054835461ffff19811661ffff9092169182178555915460ff62010000918290041615150262ffffff1990921617179091559154835260069052812080549161032583610891565b91905055505050565b6001805460408051606081018252828152602080820186815292820185905283850185556000949094528051600384027fb10e2d527612073b26eecdfd717e6a320cf44b4afac2b0732d9fcbe2b7fa0cf681019182559251805194959294859492936103be937fb10e2d527612073b26eecdfd717e6a320cf44b4afac2b0732d9fcbe2b7fa0cf7019201906105c3565b506040918201516002909101805491151560ff1990921691909117905560008381526003602090815282822080546001600160a01b031916339081179091558252600481529190208251815582820151805184936104239260018501929101906105c3565b50604091909101516002909101805460ff1916911515919091179055505050565b6001818154811061045457600080fd5b6000918252602090912060039091020180546001820180549193509061047990610856565b80601f01602080910402602001604051908101604052809291908181526020018280546104a590610856565b80156104f25780601f106104c7576101008083540402835291602001916104f2565b820191906000526020600020905b8154815290600101906020018083116104d557829003601f168201915b5050506002909301549192505060ff1683565b6004602052600090815260409020805460018201805491929161047990610856565b60008060008060008060008054906101000a90046001600160a01b03166001600160a01b031663feaf968c6040518163ffffffff1660e01b815260040160a06040518083038186803b15801561057c57600080fd5b505afa158015610590573d6000803e3d6000fd5b505050506040513d601f19601f820116820180604052508101906105b4919061078d565b50919998505050505050505050565b8280546105cf90610856565b90600052602060002090601f0160209004810192826105f15760008555610637565b82601f1061060a57805160ff1916838001178555610637565b82800160010185558215610637579182015b8281111561063757825182559160200191906001019061061c565b50610643929150610647565b5090565b5b808211156106435760008155600101610648565b805169ffffffffffffffffffff8116811461067657600080fd5b919050565b60006020828403121561068c578081fd5b81356001600160a01b03811681146106a2578182fd5b9392505050565b6000602082840312156106ba578081fd5b813567ffffffffffffffff808211156106d1578283fd5b818401915084601f8301126106e4578283fd5b8135818111156106f6576106f66108c2565b604051601f8201601f19908116603f0116810190838211818310171561071e5761071e6108c2565b81604052828152876020848701011115610736578586fd5b826020860160208301379182016020019490945295945050505050565b600060208284031215610764578081fd5b813561ffff811681146106a2578182fd5b600060208284031215610786578081fd5b5035919050565b600080600080600060a086880312156107a4578081fd5b6107ad8661065c565b94506020860151935060408601519250606086015191506107d06080870161065c565b90509295509295909350565b838152600060206060818401528451806060850152825b8181101561080f578681018301518582016080015282016107f3565b818111156108205783608083870101525b5093151560408401525050601f91909101601f19160160800192915050565b600082821015610851576108516108ac565b500390565b600181811c9082168061086a57607f821691505b6020821081141561088b57634e487b7160e01b600052602260045260246000fd5b50919050565b60006000198214156108a5576108a56108ac565b5060010190565b634e487b7160e01b600052601160045260246000fd5b634e487b7160e01b600052604160045260246000fdfea2646970667358221220aa449679733dd75fea0879280f9194ed7e58abaed3ec985913a60c18c55d69cb64736f6c63430008040033",
    "sourcePath": "/home/sebastian/Documents/Dev/BlockFood/contracts/ReservationManager.sol",
    "compiler": {
        "name": "solc",
        "version": "0.8.4+commit.c7e474f2"
    },
    "functionHashes": {
        "createProvider(string)": "1a5ac8db",
        "createReservationUnit(uint16)": "0504283d",
        "getThePrice()": "8c3c9a55",
        "ownerOfProvider(uint256)": "41764614",
        "providerOfOwner(address)": "81afe75a",
        "providers(uint256)": "50f3fc81",
        "reservationUnitCountOfProvider(uint256)": "6c1a7727",
        "reservationUnitOfProvider(uint256)": "bcb16efc",
        "reservationUnits(uint256)": "0472e2e0"
    },
    "gasEstimates": {
        "creation": {
            "codeDepositCost": "463600",
            "executionCost": "21335",
            "totalCost": "484935"
        },
        "external": {
            "createProvider(string)": "infinite",
            "createReservationUnit(uint16)": "109935",
            "getThePrice()": "infinite",
            "ownerOfProvider(uint256)": "1244",
            "providerOfOwner(address)": "infinite",
            "providers(uint256)": "infinite",
            "reservationUnitCountOfProvider(uint256)": "1160",
            "reservationUnitOfProvider(uint256)": "1277",
            "reservationUnits(uint256)": "2024"
        }
    }
}