{
  "contractName": "ReservationManager",
  "abi": [
    {
      "inputs": [],
      "payable": false,
      "stateMutability": "nonpayable",
      "type": "constructor"
    },
    {
      "constant": true,
      "inputs": [
        {
          "internalType": "uint256",
          "name": "",
          "type": "uint256"
        }
      ],
      "name": "ownerOfProvider",
      "outputs": [
        {
          "internalType": "address",
          "name": "",
          "type": "address"
        }
      ],
      "payable": false,
      "stateMutability": "view",
      "type": "function"
    },
    {
      "constant": true,
      "inputs": [
        {
          "internalType": "address",
          "name": "",
          "type": "address"
        }
      ],
      "name": "providerOfOwner",
      "outputs": [
        {
          "internalType": "uint256",
          "name": "id",
          "type": "uint256"
        },
        {
          "internalType": "string",
          "name": "name",
          "type": "string"
        },
        {
          "internalType": "bool",
          "name": "isCreated",
          "type": "bool"
        }
      ],
      "payable": false,
      "stateMutability": "view",
      "type": "function"
    },
    {
      "constant": true,
      "inputs": [
        {
          "internalType": "uint256",
          "name": "",
          "type": "uint256"
        }
      ],
      "name": "providers",
      "outputs": [
        {
          "internalType": "uint256",
          "name": "id",
          "type": "uint256"
        },
        {
          "internalType": "string",
          "name": "name",
          "type": "string"
        },
        {
          "internalType": "bool",
          "name": "isCreated",
          "type": "bool"
        }
      ],
      "payable": false,
      "stateMutability": "view",
      "type": "function"
    },
    {
      "constant": true,
      "inputs": [
        {
          "internalType": "uint256",
          "name": "",
          "type": "uint256"
        }
      ],
      "name": "reservationUnitCountOfProvider",
      "outputs": [
        {
          "internalType": "uint256",
          "name": "",
          "type": "uint256"
        }
      ],
      "payable": false,
      "stateMutability": "view",
      "type": "function"
    },
    {
      "constant": true,
      "inputs": [
        {
          "internalType": "uint256",
          "name": "",
          "type": "uint256"
        }
      ],
      "name": "reservationUnitOfProvider",
      "outputs": [
        {
          "internalType": "uint16",
          "name": "possibleGuestCount",
          "type": "uint16"
        },
        {
          "internalType": "bool",
          "name": "isCreated",
          "type": "bool"
        }
      ],
      "payable": false,
      "stateMutability": "view",
      "type": "function"
    },
    {
      "constant": true,
      "inputs": [
        {
          "internalType": "uint256",
          "name": "",
          "type": "uint256"
        }
      ],
      "name": "reservationUnits",
      "outputs": [
        {
          "internalType": "uint16",
          "name": "possibleGuestCount",
          "type": "uint16"
        },
        {
          "internalType": "bool",
          "name": "isCreated",
          "type": "bool"
        }
      ],
      "payable": false,
      "stateMutability": "view",
      "type": "function"
    },
    {
      "constant": false,
      "inputs": [
        {
          "internalType": "string",
          "name": "name",
          "type": "string"
        }
      ],
      "name": "createProvider",
      "outputs": [],
      "payable": false,
      "stateMutability": "nonpayable",
      "type": "function"
    },
    {
      "constant": false,
      "inputs": [
        {
          "internalType": "uint16",
          "name": "guestCount",
          "type": "uint16"
        }
      ],
      "name": "createReservationUnit",
      "outputs": [],
      "payable": false,
      "stateMutability": "nonpayable",
      "type": "function"
    }
  ],
  "bytecode": "0x608060405234801561001057600080fd5b50610b86806100206000396000f3fe608060405234801561001057600080fd5b50600436106100885760003560e01c806350f3fc811161005b57806350f3fc811461023d5780636c1a7727146102f657806381afe75a14610338578063bcb16efc1461040757610088565b80630472e2e01461008d5780630504283d146100e25780631a5ac8db1461011457806341764614146101cf575b600080fd5b6100b9600480360360208110156100a357600080fd5b810190808035906020019092919050505061045c565b604051808361ffff1661ffff168152602001821515151581526020019250505060405180910390f35b610112600480360360208110156100f857600080fd5b81019080803561ffff1690602001909291905050506104a4565b005b6101cd6004803603602081101561012a57600080fd5b810190808035906020019064010000000081111561014757600080fd5b82018360208201111561015957600080fd5b8035906020019184600183028401116401000000008311171561017b57600080fd5b91908080601f016020809104026020016040519081016040528093929190818152602001838380828437600081840152601f19601f8201169050808301925050505050505091929192905050506106ca565b005b6101fb600480360360208110156101e557600080fd5b8101908080359060200190929190505050610854565b604051808273ffffffffffffffffffffffffffffffffffffffff1673ffffffffffffffffffffffffffffffffffffffff16815260200191505060405180910390f35b6102696004803603602081101561025357600080fd5b8101908080359060200190929190505050610887565b604051808481526020018060200183151515158152602001828103825284818151815260200191508051906020019080838360005b838110156102b957808201518184015260208101905061029e565b50505050905090810190601f1680156102e65780820380516001836020036101000a031916815260200191505b5094505050505060405180910390f35b6103226004803603602081101561030c57600080fd5b8101908080359060200190929190505050610963565b6040518082815260200191505060405180910390f35b61037a6004803603602081101561034e57600080fd5b81019080803573ffffffffffffffffffffffffffffffffffffffff16906020019092919050505061097b565b604051808481526020018060200183151515158152602001828103825284818151815260200191508051906020019080838360005b838110156103ca5780820151818401526020810190506103af565b50505050905090810190601f1680156103f75780820380516001836020036101000a031916815260200191505b5094505050505060405180910390f35b6104336004803603602081101561041d57600080fd5b8101908080359060200190929190505050610a4a565b604051808361ffff1661ffff168152602001821515151581526020019250505060405180910390f35b6001818154811061046957fe5b906000526020600020016000915090508060000160009054906101000a900461ffff16908060000160029054906101000a900460ff16905082565b600360003373ffffffffffffffffffffffffffffffffffffffff1673ffffffffffffffffffffffffffffffffffffffff16815260200190815260200160002060020160009054906101000a900460ff166104fd57600080fd5b600160405180604001604052808361ffff1681526020016001151581525090806001815401808255809150509060018203906000526020600020016000909192909190915060008201518160000160006101000a81548161ffff021916908361ffff16021790555060208201518160000160026101000a81548160ff021916908315150217905550505050600060018080549050039050600181815481106105a157fe5b9060005260206000200160046000600360003373ffffffffffffffffffffffffffffffffffffffff1673ffffffffffffffffffffffffffffffffffffffff1681526020019081526020016000206000015481526020019081526020016000206000820160009054906101000a900461ffff168160000160006101000a81548161ffff021916908361ffff1602179055506000820160029054906101000a900460ff168160000160026101000a81548160ff02191690831515021790555090505060056000600360003373ffffffffffffffffffffffffffffffffffffffff1673ffffffffffffffffffffffffffffffffffffffff168152602001908152602001600020600001548152602001908152602001600020600081548092919060010191905055505050565b6000808054905090506106db610a89565b60405180606001604052808381526020018481526020016001151581525090506000819080600181540180825580915050906001820390600052602060002090600302016000909192909190915060008201518160000155602082015181600101908051906020019061074f929190610aac565b5060408201518160020160006101000a81548160ff021916908315150217905550505050336002600084815260200190815260200160002060006101000a81548173ffffffffffffffffffffffffffffffffffffffff021916908373ffffffffffffffffffffffffffffffffffffffff16021790555080600360003373ffffffffffffffffffffffffffffffffffffffff1673ffffffffffffffffffffffffffffffffffffffff16815260200190815260200160002060008201518160000155602082015181600101908051906020019061082b929190610aac565b5060408201518160020160006101000a81548160ff021916908315150217905550905050505050565b60026020528060005260406000206000915054906101000a900473ffffffffffffffffffffffffffffffffffffffff1681565b6000818154811061089457fe5b9060005260206000209060030201600091509050806000015490806001018054600181600116156101000203166002900480601f0160208091040260200160405190810160405280929190818152602001828054600181600116156101000203166002900480156109465780601f1061091b57610100808354040283529160200191610946565b820191906000526020600020905b81548152906001019060200180831161092957829003601f168201915b5050505050908060020160009054906101000a900460ff16905083565b60056020528060005260406000206000915090505481565b6003602052806000526040600020600091509050806000015490806001018054600181600116156101000203166002900480601f016020809104026020016040519081016040528092919081815260200182805460018160011615610100020316600290048015610a2d5780601f10610a0257610100808354040283529160200191610a2d565b820191906000526020600020905b815481529060010190602001808311610a1057829003601f168201915b5050505050908060020160009054906101000a900460ff16905083565b60046020528060005260406000206000915090508060000160009054906101000a900461ffff16908060000160029054906101000a900460ff16905082565b604051806060016040528060008152602001606081526020016000151581525090565b828054600181600116156101000203166002900490600052602060002090601f016020900481019282601f10610aed57805160ff1916838001178555610b1b565b82800160010185558215610b1b579182015b82811115610b1a578251825591602001919060010190610aff565b5b509050610b289190610b2c565b5090565b610b4e91905b80821115610b4a576000816000905550600101610b32565b5090565b9056fea265627a7a72315820a8227cbac41b5f8cc3585334f0dd60588ff8b2fb8f99c62a17406599e97bd57564736f6c63430005100032",
  "source": "pragma solidity >=0.5.16;\r\n\r\n//import \"../node_modules/@chainlink/contracts/src/v0.6/interfaces/AggregatorV3Interface.sol\";\r\n\r\ncontract ReservationManager\r\n{\r\n\r\n    //AggregatorV3Interface internal priceFeed;\r\n\r\n    struct Provider\r\n    {\r\n        uint id;\r\n        string name;\r\n        bool isCreated;\r\n    }\r\n\r\n    struct ReservationUnit\r\n    {\r\n        uint16 possibleGuestCount;\r\n        bool isCreated;\r\n    }\r\n\r\n    Provider[] public providers;\r\n    ReservationUnit[] public reservationUnits;\r\n\r\n    //owner mappings\r\n    mapping (uint => address) public ownerOfProvider;\r\n    mapping (address => Provider) public providerOfOwner;\r\n\r\n    //reservationUnit mappings\r\n    mapping (uint => ReservationUnit) public reservationUnitOfProvider;\r\n    mapping (uint => uint) public reservationUnitCountOfProvider;\r\n\r\n\r\n    /**\r\n     * Network: Kovan\r\n     * Aggregator: ETH/USD\r\n     * Address: 0x9326BFA02ADD2366b30bacB125260Af641031331\r\n     */\r\n    constructor() public\r\n    {\r\n        //priceFeed = AggregatorV3Interface(0x9326BFA02ADD2366b30bacB125260Af641031331);\r\n    }\r\n\r\n    function createProvider(string memory name) public\r\n    {\r\n        uint id = providers.length;\r\n        Provider memory provider = Provider(id, name, true);\r\n        providers.push(provider);\r\n\r\n        ownerOfProvider[id] = msg.sender;\r\n        providerOfOwner[msg.sender] = provider;\r\n    }\r\n\r\n    function createReservationUnit(uint16 guestCount) public\r\n    {\r\n        require(providerOfOwner[msg.sender].isCreated);\r\n\r\n        reservationUnits.push(ReservationUnit(guestCount, true));\r\n        uint id = reservationUnits.length - 1;\r\n        reservationUnitOfProvider[providerOfOwner[msg.sender].id] = reservationUnits[id];\r\n        reservationUnitCountOfProvider[providerOfOwner[msg.sender].id]++;\r\n    }\r\n\r\n\r\n\r\n\r\n    /**\r\n     * Returns the latest price\r\n     */\r\n    /*function getThePrice() public view returns (int)\r\n    {\r\n        (\r\n            uint80 roundID,\r\n            int price,\r\n            uint startedAt,\r\n            uint timeStamp,\r\n            uint80 answeredInRound\r\n        ) = priceFeed.latestRoundData();\r\n        return price;\r\n    }*/\r\n}\r\n",
  "sourcePath": "C:/Users/janpa/workspace/Blockfood/contracts/ReservationManager.sol",
  "compiler": {
    "name": "solc",
    "version": "0.5.16+commit.9c3226ce.Emscripten.clang"
  },
  "schemaVersion": "3.4.1",
  "updatedAt": "2021-05-29T00:20:49.747Z",
  "devdoc": {
    "methods": {}
  },
  "userdoc": {
    "methods": {
      "constructor": "Network: Kovan Aggregator: ETH/USD Address: 0x9326BFA02ADD2366b30bacB125260Af641031331"
    }
  }
}